{
  "contractName": "SimpleStorage",
  "abi": [
    {
      "inputs": [],
      "name": "name",
      "outputs": [
        {
          "internalType": "string",
          "name": "",
          "type": "string"
        }
      ],
      "stateMutability": "view",
      "type": "function",
      "constant": true
    },
    {
      "inputs": [],
      "name": "read",
      "outputs": [
        {
          "internalType": "uint256",
          "name": "",
          "type": "uint256"
        }
      ],
      "stateMutability": "view",
      "type": "function",
      "constant": true
    },
    {
      "inputs": [
        {
          "internalType": "uint256",
          "name": "newValue",
          "type": "uint256"
        }
      ],
      "name": "write",
      "outputs": [],
      "stateMutability": "nonpayable",
      "type": "function"
    },
    {
      "inputs": [
        {
          "internalType": "string",
          "name": "newValue",
          "type": "string"
        }
      ],
      "name": "writeName",
      "outputs": [],
      "stateMutability": "nonpayable",
      "type": "function"
    }
  ],
  "bytecode": "0x6080604052607b6000556040518060400160405280600781526020017f544553464159450000000000000000000000000000000000000000000000000081525060019080519060200190610054929190610067565b5034801561006157600080fd5b5061016a565b82805461007390610139565b90600052602060002090601f01602090048101928261009557600085556100dc565b82601f106100ae57805160ff19168380011785556100dc565b828001600101855582156100dc579182015b828111156100db5782518255916020019190600101906100c0565b5b5090506100e991906100ed565b5090565b5b808211156101065760008160009055506001016100ee565b5090565b7f4e487b7100000000000000000000000000000000000000000000000000000000600052602260045260246000fd5b6000600282049050600182168061015157607f821691505b6020821081036101645761016361010a565b5b50919050565b610593806101796000396000f3fe608060405234801561001057600080fd5b506004361061004c5760003560e01c806306fdde03146100515780632f048afa1461006f57806357de26a41461008b578063aeb98bf5146100a9575b600080fd5b6100596100c5565b60405161006691906102bc565b60405180910390f35b61008960048036038101906100849190610328565b610153565b005b61009361015d565b6040516100a09190610364565b60405180910390f35b6100c360048036038101906100be91906104b4565b610166565b005b600180546100d29061052c565b80601f01602080910402602001604051908101604052809291908181526020018280546100fe9061052c565b801561014b5780601f106101205761010080835404028352916020019161014b565b820191906000526020600020905b81548152906001019060200180831161012e57829003601f168201915b505050505081565b8060008190555050565b60008054905090565b806001908051906020019061017c929190610180565b5050565b82805461018c9061052c565b90600052602060002090601f0160209004810192826101ae57600085556101f5565b82601f106101c757805160ff19168380011785556101f5565b828001600101855582156101f5579182015b828111156101f45782518255916020019190600101906101d9565b5b5090506102029190610206565b5090565b5b8082111561021f576000816000905550600101610207565b5090565b600081519050919050565b600082825260208201905092915050565b60005b8381101561025d578082015181840152602081019050610242565b8381111561026c576000848401525b50505050565b6000601f19601f8301169050919050565b600061028e82610223565b610298818561022e565b93506102a881856020860161023f565b6102b181610272565b840191505092915050565b600060208201905081810360008301526102d68184610283565b905092915050565b6000604051905090565b600080fd5b600080fd5b6000819050919050565b610305816102f2565b811461031057600080fd5b50565b600081359050610322816102fc565b92915050565b60006020828403121561033e5761033d6102e8565b5b600061034c84828501610313565b91505092915050565b61035e816102f2565b82525050565b60006020820190506103796000830184610355565b92915050565b600080fd5b600080fd5b7f4e487b7100000000000000000000000000000000000000000000000000000000600052604160045260246000fd5b6103c182610272565b810181811067ffffffffffffffff821117156103e0576103df610389565b5b80604052505050565b60006103f36102de565b90506103ff82826103b8565b919050565b600067ffffffffffffffff82111561041f5761041e610389565b5b61042882610272565b9050602081019050919050565b82818337600083830152505050565b600061045761045284610404565b6103e9565b90508281526020810184848401111561047357610472610384565b5b61047e848285610435565b509392505050565b600082601f83011261049b5761049a61037f565b5b81356104ab848260208601610444565b91505092915050565b6000602082840312156104ca576104c96102e8565b5b600082013567ffffffffffffffff8111156104e8576104e76102ed565b5b6104f484828501610486565b91505092915050565b7f4e487b7100000000000000000000000000000000000000000000000000000000600052602260045260246000fd5b6000600282049050600182168061054457607f821691505b602082108103610557576105566104fd565b5b5091905056fea264697066735822122018fb99dd20ba381ecdc214ce516a61b911d18f5b063c1eca146b30e06a7d45ea64736f6c634300080e0033",
  "immutableReferences": {},
  "source": "// SPDX-License-Identifier: MIT\npragma solidity >=0.4.22 <0.9.0;\n\ncontract SimpleStorage {\n  uint256 value = 123;\n  string public name = \"TESFAYE\";\n\n  function read() public view returns (uint256) {\n    return value;\n  }\n\n  function write(uint256 newValue) public {\n    value = newValue;\n  }\n\n\n  function writeName(string memory newValue) public {\n    name = newValue;\n  }\n\n}\n",
  "sourcePath": "/home/hp/Downloads/react/truffle/contracts/SimpleStorage.sol",
  "compiler": {
    "name": "solc",
    "version": "0.8.14+commit.80d49f37.Emscripten.clang"
  },
  "schemaVersion": "3.4.8",
  "updatedAt": "2022-07-16T00:05:04.321Z",
  "networkType": "ethereum",
  "devdoc": {
    "kind": "dev",
    "methods": {},
    "version": 1
  },
  "userdoc": {
    "kind": "user",
    "methods": {},
    "version": 1
  }
}