{
  "contractName": "Refund",
  "abi": [
    {
      "anonymous": false,
      "inputs": [
        {
          "indexed": true,
          "internalType": "uint256",
          "name": "_candidateId",
          "type": "uint256"
        }
      ],
      "name": "FoundLocationEvent",
      "type": "event"
    },
    {
      "inputs": [],
      "name": "Contractcount",
      "outputs": [
        {
          "internalType": "uint256",
          "name": "",
          "type": "uint256"
        }
      ],
      "stateMutability": "view",
      "type": "function",
      "constant": true
    },
    {
      "inputs": [],
      "name": "Employeecount",
      "outputs": [
        {
          "internalType": "uint256",
          "name": "",
          "type": "uint256"
        }
      ],
      "stateMutability": "view",
      "type": "function",
      "constant": true
    },
    {
      "inputs": [],
      "name": "Employercount",
      "outputs": [
        {
          "internalType": "uint256",
          "name": "",
          "type": "uint256"
        }
      ],
      "stateMutability": "view",
      "type": "function",
      "constant": true
    },
    {
      "inputs": [
        {
          "internalType": "uint256",
          "name": "",
          "type": "uint256"
        }
      ],
      "name": "contracts",
      "outputs": [
        {
          "internalType": "uint256",
          "name": "id",
          "type": "uint256"
        },
        {
          "internalType": "uint256",
          "name": "minimum_point_long",
          "type": "uint256"
        },
        {
          "internalType": "uint256",
          "name": "minimum_point_lat",
          "type": "uint256"
        },
        {
          "internalType": "uint256",
          "name": "maximum_point_long",
          "type": "uint256"
        },
        {
          "internalType": "uint256",
          "name": "maximum_point_lat",
          "type": "uint256"
        },
        {
          "internalType": "uint256",
          "name": "duration",
          "type": "uint256"
        },
        {
          "internalType": "uint256",
          "name": "last_checked",
          "type": "uint256"
        },
        {
          "components": [
            {
              "internalType": "uint256",
              "name": "id",
              "type": "uint256"
            },
            {
              "internalType": "string",
              "name": "name",
              "type": "string"
            },
            {
              "internalType": "address",
              "name": "public_address",
              "type": "address"
            }
          ],
          "internalType": "struct Refund.Employee",
          "name": "employees",
          "type": "tuple"
        },
        {
          "components": [
            {
              "internalType": "uint256",
              "name": "id",
              "type": "uint256"
            },
            {
              "internalType": "string",
              "name": "name",
              "type": "string"
            },
            {
              "internalType": "address",
              "name": "public_address",
              "type": "address"
            }
          ],
          "internalType": "struct Refund.Employer",
          "name": "employer",
          "type": "tuple"
        }
      ],
      "stateMutability": "view",
      "type": "function",
      "constant": true
    },
    {
      "inputs": [
        {
          "internalType": "uint256",
          "name": "",
          "type": "uint256"
        }
      ],
      "name": "employees",
      "outputs": [
        {
          "internalType": "uint256",
          "name": "id",
          "type": "uint256"
        },
        {
          "internalType": "string",
          "name": "name",
          "type": "string"
        },
        {
          "internalType": "address",
          "name": "public_address",
          "type": "address"
        }
      ],
      "stateMutability": "view",
      "type": "function",
      "constant": true
    },
    {
      "inputs": [
        {
          "internalType": "uint256",
          "name": "",
          "type": "uint256"
        }
      ],
      "name": "employers",
      "outputs": [
        {
          "internalType": "uint256",
          "name": "id",
          "type": "uint256"
        },
        {
          "internalType": "string",
          "name": "name",
          "type": "string"
        },
        {
          "internalType": "address",
          "name": "public_address",
          "type": "address"
        }
      ],
      "stateMutability": "view",
      "type": "function",
      "constant": true
    },
    {
      "inputs": [
        {
          "internalType": "uint256",
          "name": "lt",
          "type": "uint256"
        },
        {
          "internalType": "uint256",
          "name": "ln",
          "type": "uint256"
        }
      ],
      "name": "getLocation",
      "outputs": [],
      "stateMutability": "nonpayable",
      "type": "function"
    },
    {
      "inputs": [
        {
          "internalType": "address[]",
          "name": "a",
          "type": "address[]"
        }
      ],
      "name": "initialize_employers",
      "outputs": [],
      "stateMutability": "nonpayable",
      "type": "function"
    },
    {
      "inputs": [
        {
          "internalType": "address[]",
          "name": "a",
          "type": "address[]"
        }
      ],
      "name": "initialize_employees",
      "outputs": [],
      "stateMutability": "nonpayable",
      "type": "function"
    },
    {
      "inputs": [
        {
          "internalType": "uint256[2]",
          "name": "minimum_points",
          "type": "uint256[2]"
        },
        {
          "internalType": "uint256[2]",
          "name": "maximum_points",
          "type": "uint256[2]"
        },
        {
          "internalType": "uint256",
          "name": "duration",
          "type": "uint256"
        },
        {
          "internalType": "string",
          "name": "employee_name",
          "type": "string"
        },
        {
          "internalType": "address",
          "name": "employee_address",
          "type": "address"
        },
        {
          "internalType": "uint256",
          "name": "id",
          "type": "uint256"
        }
      ],
      "name": "Create_contract_data",
      "outputs": [],
      "stateMutability": "nonpayable",
      "type": "function"
    }
  ],
  "bytecode": "0x608060405234801561001057600080fd5b50611969806100206000396000f3fe608060405234801561001057600080fd5b506004361061009e5760003560e01c80634643ea7d116100665780634643ea7d146101495780634739326b14610167578063474da79a14610199578063aae03ea7146101d1578063b226c1d9146101ed5761009e565b8063066c4562146100a357806307e7c336146100d557806326b3726d146100f35780633684aa661461010f5780633795fcb91461012b575b600080fd5b6100bd60048036038101906100b89190610f1f565b610209565b6040516100cc93929190611035565b60405180910390f35b6100dd6102db565b6040516100ea9190611073565b60405180910390f35b61010d60048036038101906101089190611202565b6102e1565b005b6101296004803603810190610124919061124b565b61034f565b005b61013361035a565b6040516101409190611073565b60405180910390f35b610151610360565b60405161015e9190611073565b60405180910390f35b610181600480360381019061017c9190610f1f565b610366565b60405161019093929190611035565b60405180910390f35b6101b360048036038101906101ae9190610f1f565b610438565b6040516101c899989796959493929190611393565b60405180910390f35b6101eb60048036038101906101e69190611594565b61067e565b005b61020760048036038101906102029190611202565b610aba565b005b60046020528060005260406000206000915090508060000154908060010180546102329061166d565b80601f016020809104026020016040519081016040528092919081815260200182805461025e9061166d565b80156102ab5780601f10610280576101008083540402835291602001916102ab565b820191906000526020600020905b81548152906001019060200180831161028e57829003601f168201915b5050505050908060020160009054906101000a900473ffffffffffffffffffffffffffffffffffffffff16905083565b60055481565b60005b815181101561034b576103386102f982610b28565b6040516020016103099190611700565b60405160208183030381529060405283838151811061032b5761032a611726565b5b6020026020010151610c88565b808061034390611784565b9150506102e4565b5050565b816006819055505050565b60015481565b60035481565b600260205280600052604060002060009150905080600001549080600101805461038f9061166d565b80601f01602080910402602001604051908101604052809291908181526020018280546103bb9061166d565b80156104085780601f106103dd57610100808354040283529160200191610408565b820191906000526020600020905b8154815290600101906020018083116103eb57829003601f168201915b5050505050908060020160009054906101000a900473ffffffffffffffffffffffffffffffffffffffff16905083565b6000602052806000526040600020600091509050806000015490806001015490806002015490806003015490806004015490806005015490806006015490806007016040518060600160405290816000820154815260200160018201805461049f9061166d565b80601f01602080910402602001604051908101604052809291908181526020018280546104cb9061166d565b80156105185780601f106104ed57610100808354040283529160200191610518565b820191906000526020600020905b8154815290600101906020018083116104fb57829003601f168201915b505050505081526020016002820160009054906101000a900473ffffffffffffffffffffffffffffffffffffffff1673ffffffffffffffffffffffffffffffffffffffff1673ffffffffffffffffffffffffffffffffffffffff16815250509080600a01604051806060016040529081600082015481526020016001820180546105a19061166d565b80601f01602080910402602001604051908101604052809291908181526020018280546105cd9061166d565b801561061a5780601f106105ef5761010080835404028352916020019161061a565b820191906000526020600020905b8154815290600101906020018083116105fd57829003601f168201915b505050505081526020016002820160009054906101000a900473ffffffffffffffffffffffffffffffffffffffff1673ffffffffffffffffffffffffffffffffffffffff1673ffffffffffffffffffffffffffffffffffffffff1681525050905089565b6106888383610c88565b6001600081548092919061069b90611784565b91905055506040518061012001604052806001548152602001876000600281106106c8576106c7611726565b5b60200201518152602001876001600281106106e6576106e5611726565b5b602002015181526020018660006002811061070457610703611726565b5b602002015181526020018660016002811061072257610721611726565b5b60200201518152602001858152602001858152602001600260006003548152602001908152602001600020604051806060016040529081600082015481526020016001820180546107729061166d565b80601f016020809104026020016040519081016040528092919081815260200182805461079e9061166d565b80156107eb5780601f106107c0576101008083540402835291602001916107eb565b820191906000526020600020905b8154815290600101906020018083116107ce57829003601f168201915b505050505081526020016002820160009054906101000a900473ffffffffffffffffffffffffffffffffffffffff1673ffffffffffffffffffffffffffffffffffffffff1673ffffffffffffffffffffffffffffffffffffffff1681525050815260200160046000848152602001908152602001600020604051806060016040529081600082015481526020016001820180546108879061166d565b80601f01602080910402602001604051908101604052809291908181526020018280546108b39061166d565b80156109005780601f106108d557610100808354040283529160200191610900565b820191906000526020600020905b8154815290600101906020018083116108e357829003601f168201915b505050505081526020016002820160009054906101000a900473ffffffffffffffffffffffffffffffffffffffff1673ffffffffffffffffffffffffffffffffffffffff1673ffffffffffffffffffffffffffffffffffffffff16815250508152506000806001548152602001908152602001600020600082015181600001556020820151816001015560408201518160020155606082015181600301556080820151816004015560a0820151816005015560c0820151816006015560e0820151816007016000820151816000015560208201518160010190805190602001906109eb929190610e32565b5060408201518160020160006101000a81548173ffffffffffffffffffffffffffffffffffffffff021916908373ffffffffffffffffffffffffffffffffffffffff160217905550505061010082015181600a01600082015181600001556020820151816001019080519060200190610a65929190610e32565b5060408201518160020160006101000a81548173ffffffffffffffffffffffffffffffffffffffff021916908373ffffffffffffffffffffffffffffffffffffffff1602179055505050905050505050505050565b60005b8151811015610b2457610b11610ad282610b28565b604051602001610ae291906117f2565b604051602081830303815290604052838381518110610b0457610b03611726565b5b6020026020010151610d5d565b8080610b1c90611784565b915050610abd565b5050565b606060008203610b6f576040518060400160405280600181526020017f30000000000000000000000000000000000000000000000000000000000000008152509050610c83565b600082905060005b60008214610ba1578080610b8a90611784565b915050600a82610b9a9190611847565b9150610b77565b60008167ffffffffffffffff811115610bbd57610bbc611093565b5b6040519080825280601f01601f191660200182016040528015610bef5781602001600182028036833780820191505090505b5090505b60008514610c7c57600182610c089190611878565b9150600a85610c1791906118ac565b6030610c2391906118dd565b60f81b818381518110610c3957610c38611726565b5b60200101907effffffffffffffffffffffffffffffffffffffffffffffffffffffffffffff1916908160001a905350600a85610c759190611847565b9450610bf3565b8093505050505b919050565b60036000815480929190610c9b90611784565b9190505550604051806060016040528060035481526020018381526020018273ffffffffffffffffffffffffffffffffffffffff16815250600260006003548152602001908152602001600020600082015181600001556020820151816001019080519060200190610d0e929190610e32565b5060408201518160020160006101000a81548173ffffffffffffffffffffffffffffffffffffffff021916908373ffffffffffffffffffffffffffffffffffffffff1602179055509050505050565b60056000815480929190610d7090611784565b9190505550604051806060016040528060055481526020018381526020018273ffffffffffffffffffffffffffffffffffffffff16815250600460006005548152602001908152602001600020600082015181600001556020820151816001019080519060200190610de3929190610e32565b5060408201518160020160006101000a81548173ffffffffffffffffffffffffffffffffffffffff021916908373ffffffffffffffffffffffffffffffffffffffff1602179055509050505050565b828054610e3e9061166d565b90600052602060002090601f016020900481019282610e605760008555610ea7565b82601f10610e7957805160ff1916838001178555610ea7565b82800160010185558215610ea7579182015b82811115610ea6578251825591602001919060010190610e8b565b5b509050610eb49190610eb8565b5090565b5b80821115610ed1576000816000905550600101610eb9565b5090565b6000604051905090565b600080fd5b600080fd5b6000819050919050565b610efc81610ee9565b8114610f0757600080fd5b50565b600081359050610f1981610ef3565b92915050565b600060208284031215610f3557610f34610edf565b5b6000610f4384828501610f0a565b91505092915050565b610f5581610ee9565b82525050565b600081519050919050565b600082825260208201905092915050565b60005b83811015610f95578082015181840152602081019050610f7a565b83811115610fa4576000848401525b50505050565b6000601f19601f8301169050919050565b6000610fc682610f5b565b610fd08185610f66565b9350610fe0818560208601610f77565b610fe981610faa565b840191505092915050565b600073ffffffffffffffffffffffffffffffffffffffff82169050919050565b600061101f82610ff4565b9050919050565b61102f81611014565b82525050565b600060608201905061104a6000830186610f4c565b818103602083015261105c8185610fbb565b905061106b6040830184611026565b949350505050565b60006020820190506110886000830184610f4c565b92915050565b600080fd5b7f4e487b7100000000000000000000000000000000000000000000000000000000600052604160045260246000fd5b6110cb82610faa565b810181811067ffffffffffffffff821117156110ea576110e9611093565b5b80604052505050565b60006110fd610ed5565b905061110982826110c2565b919050565b600067ffffffffffffffff82111561112957611128611093565b5b602082029050602081019050919050565b600080fd5b61114881611014565b811461115357600080fd5b50565b6000813590506111658161113f565b92915050565b600061117e6111798461110e565b6110f3565b905080838252602082019050602084028301858111156111a1576111a061113a565b5b835b818110156111ca57806111b68882611156565b8452602084019350506020810190506111a3565b5050509392505050565b600082601f8301126111e9576111e861108e565b5b81356111f984826020860161116b565b91505092915050565b60006020828403121561121857611217610edf565b5b600082013567ffffffffffffffff81111561123657611235610ee4565b5b611242848285016111d4565b91505092915050565b6000806040838503121561126257611261610edf565b5b600061127085828601610f0a565b925050602061128185828601610f0a565b9150509250929050565b61129481610ee9565b82525050565b600082825260208201905092915050565b60006112b682610f5b565b6112c0818561129a565b93506112d0818560208601610f77565b6112d981610faa565b840191505092915050565b6112ed81611014565b82525050565b600060608301600083015161130b600086018261128b565b506020830151848203602086015261132382826112ab565b915050604083015161133860408601826112e4565b508091505092915050565b600060608301600083015161135b600086018261128b565b506020830151848203602086015261137382826112ab565b915050604083015161138860408601826112e4565b508091505092915050565b6000610120820190506113a9600083018c610f4c565b6113b6602083018b610f4c565b6113c3604083018a610f4c565b6113d06060830189610f4c565b6113dd6080830188610f4c565b6113ea60a0830187610f4c565b6113f760c0830186610f4c565b81810360e083015261140981856112f3565b905081810361010083015261141e8184611343565b90509a9950505050505050505050565b600067ffffffffffffffff82111561144957611448611093565b5b602082029050919050565b60006114676114628461142e565b6110f3565b905080602084028301858111156114815761148061113a565b5b835b818110156114aa57806114968882610f0a565b845260208401935050602081019050611483565b5050509392505050565b600082601f8301126114c9576114c861108e565b5b60026114d6848285611454565b91505092915050565b600080fd5b600067ffffffffffffffff8211156114ff576114fe611093565b5b61150882610faa565b9050602081019050919050565b82818337600083830152505050565b6000611537611532846114e4565b6110f3565b905082815260208101848484011115611553576115526114df565b5b61155e848285611515565b509392505050565b600082601f83011261157b5761157a61108e565b5b813561158b848260208601611524565b91505092915050565b60008060008060008061010087890312156115b2576115b1610edf565b5b60006115c089828a016114b4565b96505060406115d189828a016114b4565b95505060806115e289828a01610f0a565b94505060a087013567ffffffffffffffff81111561160357611602610ee4565b5b61160f89828a01611566565b93505060c061162089828a01611156565b92505060e061163189828a01610f0a565b9150509295509295509295565b7f4e487b7100000000000000000000000000000000000000000000000000000000600052602260045260246000fd5b6000600282049050600182168061168557607f821691505b6020821081036116985761169761163e565b5b50919050565b7f456d706c6f796565200000000000000000000000000000000000000000000000815250565b600081905092915050565b60006116da82610f5b565b6116e481856116c4565b93506116f4818560208601610f77565b80840191505092915050565b600061170b8261169e565b60098201915061171b82846116cf565b915081905092915050565b7f4e487b7100000000000000000000000000000000000000000000000000000000600052603260045260246000fd5b7f4e487b7100000000000000000000000000000000000000000000000000000000600052601160045260246000fd5b600061178f82610ee9565b91507fffffffffffffffffffffffffffffffffffffffffffffffffffffffffffffffff82036117c1576117c0611755565b5b600182019050919050565b7f456d706c6f796572200000000000000000000000000000000000000000000000815250565b60006117fd826117cc565b60098201915061180d82846116cf565b915081905092915050565b7f4e487b7100000000000000000000000000000000000000000000000000000000600052601260045260246000fd5b600061185282610ee9565b915061185d83610ee9565b92508261186d5761186c611818565b5b828204905092915050565b600061188382610ee9565b915061188e83610ee9565b9250828210156118a1576118a0611755565b5b828203905092915050565b60006118b782610ee9565b91506118c283610ee9565b9250826118d2576118d1611818565b5b828206905092915050565b60006118e882610ee9565b91506118f383610ee9565b9250827fffffffffffffffffffffffffffffffffffffffffffffffffffffffffffffffff0382111561192857611927611755565b5b82820190509291505056fea26469706673582212202078e239586176c250c55d200b2023e24adddb3ecb4d073c6fa03a2a8a5de25564736f6c634300080e0033",
  "immutableReferences": {},
  "source": "// SPDX-License-Identifier: MIT\npragma solidity >=0.4.22 <0.9.0;\nimport \"@openzeppelin/contracts/utils/Strings.sol\";\n\ncontract Refund {\n    // Model a Candidate\n    struct Employee {\n        uint256 id;\n        string name;\n        address public_address;\n    }\n\n    struct Employer {\n        uint256 id;\n        string name;\n        address public_address;\n    }\n    struct contract_data {\n        uint256 id;\n        uint256 minimum_point_long;\n        uint256 minimum_point_lat;\n        uint256 maximum_point_long;\n        uint256 maximum_point_lat;\n        uint256 duration;\n        uint256 last_checked;\n        Employee employees;\n        Employer employer;\n    }\n\n    struct locationData {\n        uint256 lat;\n        uint256 lng;\n    }\n\n    // Store accounts that have voted\n    mapping(uint256 => contract_data) public contracts;\n    uint256 public Contractcount;\n\n    // Store Candidates\n    // Fetch Candidate\n    mapping(uint256 => Employee) public employees;\n    // Store Candidates Count\n    uint256 public Employeecount;\n\n    mapping(uint256 => Employer) public employers;\n    // Store Candidates Count\n    uint256 public Employercount;\n\n    // voted event\n    event FoundLocationEvent(uint256 indexed _candidateId);\n\n    uint256 val;\n\n    function getLocation(uint256 lt, uint256 ln) public {\n        val = lt;\n    }\n\n    function initialize_employers(address[] memory a) public {\n        for (uint256 add = 0; add < a.length; add++) {\n            addEmployer(\n                string.concat(\"Employer \", Strings.toString(add)),\n                a[add]\n            );\n        }\n        // addEmployee(\"Employee 1\" , a[1]);\n    }\n\n    function initialize_employees(address[] memory a) public {\n        // addEmployer(\"Employer 1\" , a[0]);\n        for (uint256 add = 0; add < a.length; add++) {\n            addEmployee(\n                string.concat(\"Employee \", Strings.toString(add)),\n                a[add]\n            );\n        }\n    }\n\n    function addEmployer(string memory _name, address user_address) private {\n        Employercount++;\n        employers[Employercount] = Employer(Employercount, _name, user_address);\n    }\n\n    function addEmployee(string memory _name, address user_address) private {\n        Employeecount++;\n        employees[Employeecount] = Employee(Employeecount, _name, user_address);\n    }\n\n    function Create_contract_data(\n        uint256[2] memory minimum_points,\n        uint256[2] memory maximum_points,\n        uint256 duration,\n        string memory employee_name,\n        address employee_address,\n        uint256 id\n    ) public {\n        addEmployee(employee_name, employee_address);\n        Contractcount++;\n        contracts[Contractcount] = contract_data(\n            Contractcount,\n            minimum_points[0],\n            minimum_points[1],\n            maximum_points[0],\n            maximum_points[1],\n            duration,\n            duration,\n            employees[Employeecount],\n            employers[id]\n        );\n    }\n\n    // function vote (uint _candidateId) public {\n    //     // require that they haven't voted before\n    //     require(!voters[msg.sender]);\n\n    //     // require a valid candidate\n    //     require(_candidateId > 0 && _candidateId <= candidatesCount);\n\n    //     // record that voter has voted\n    //     voters[msg.sender] = true;\n\n    //     // update candidate vote Count\n    //     candidates[_candidateId].voteCount ++;\n\n    //     // trigger voted event\n    //     votedEvent(_candidateId);\n    // }\n}\n",
  "sourcePath": "/home/etta/Documents/sat files/project/truffle/contracts/Refund.sol",
  "compiler": {
    "name": "solc",
    "version": "0.8.14+commit.80d49f37.Emscripten.clang"
  },
  "schemaVersion": "3.4.8",
  "updatedAt": "2022-07-16T20:05:16.044Z",
  "networkType": "ethereum",
  "devdoc": {
    "kind": "dev",
    "methods": {},
    "version": 1
  },
  "userdoc": {
    "kind": "user",
    "methods": {},
    "version": 1
  }
}