{
  "contractName": "Refund",
  "abi": [
    {
      "anonymous": false,
      "inputs": [
        {
          "indexed": true,
          "internalType": "uint256",
          "name": "_candidateId",
          "type": "uint256"
        }
      ],
      "name": "FoundLocationEvent",
      "type": "event"
    },
    {
      "inputs": [],
      "name": "Employeecount",
      "outputs": [
        {
          "internalType": "uint256",
          "name": "",
          "type": "uint256"
        }
      ],
      "stateMutability": "view",
      "type": "function",
      "constant": true
    },
    {
      "inputs": [],
      "name": "Employercount",
      "outputs": [
        {
          "internalType": "uint256",
          "name": "",
          "type": "uint256"
        }
      ],
      "stateMutability": "view",
      "type": "function",
      "constant": true
    },
    {
      "inputs": [
        {
          "internalType": "uint256",
          "name": "",
          "type": "uint256"
        }
      ],
      "name": "employees",
      "outputs": [
        {
          "internalType": "uint256",
          "name": "id",
          "type": "uint256"
        },
        {
          "internalType": "string",
          "name": "name",
          "type": "string"
        },
        {
          "internalType": "address",
          "name": "public_address",
          "type": "address"
        }
      ],
      "stateMutability": "view",
      "type": "function",
      "constant": true
    },
    {
      "inputs": [
        {
          "internalType": "uint256",
          "name": "",
          "type": "uint256"
        }
      ],
      "name": "employers",
      "outputs": [
        {
          "internalType": "uint256",
          "name": "id",
          "type": "uint256"
        },
        {
          "internalType": "string",
          "name": "name",
          "type": "string"
        },
        {
          "internalType": "address",
          "name": "public_address",
          "type": "address"
        }
      ],
      "stateMutability": "view",
      "type": "function",
      "constant": true
    },
    {
      "inputs": [
        {
          "internalType": "address",
          "name": "",
          "type": "address"
        }
      ],
      "name": "users",
      "outputs": [
        {
          "internalType": "bool",
          "name": "",
          "type": "bool"
        }
      ],
      "stateMutability": "view",
      "type": "function",
      "constant": true
    },
    {
      "inputs": [
        {
          "internalType": "address[]",
          "name": "a",
          "type": "address[]"
        }
      ],
      "name": "initialize_employers",
      "outputs": [
        {
          "internalType": "uint256",
          "name": "",
          "type": "uint256"
        }
      ],
      "stateMutability": "pure",
      "type": "function",
      "constant": true
    },
    {
      "inputs": [
        {
          "internalType": "address[]",
          "name": "a",
          "type": "address[]"
        }
      ],
      "name": "initialize_employees",
      "outputs": [],
      "stateMutability": "nonpayable",
      "type": "function"
    }
  ],
  "bytecode": "0x608060405234801561001057600080fd5b50610da9806100206000396000f3fe608060405234801561001057600080fd5b506004361061007d5760003560e01c80634643ea7d1161005b5780634643ea7d146100ee5780634739326b1461010c578063a87430ba1461013e578063b226c1d91461016e5761007d565b8063066c45621461008257806307e7c336146100b457806326b3726d146100d2575b600080fd5b61009c6004803603810190610097919061073b565b61019e565b6040516100ab93929190610851565b60405180910390f35b6100bc610270565b6040516100c9919061088f565b60405180910390f35b6100ec60048036038101906100e79190610a1e565b610276565b005b6100f66102e4565b604051610103919061088f565b60405180910390f35b6101266004803603810190610121919061073b565b6102ea565b60405161013593929190610851565b60405180910390f35b61015860048036038101906101539190610a67565b6103bc565b6040516101659190610aaf565b60405180910390f35b61018860048036038101906101839190610a1e565b6103dc565b604051610195919061088f565b60405180910390f35b60036020528060005260406000206000915090508060000154908060010180546101c790610af9565b80601f01602080910402602001604051908101604052809291908181526020018280546101f390610af9565b80156102405780601f1061021557610100808354040283529160200191610240565b820191906000526020600020905b81548152906001019060200180831161022357829003601f168201915b5050505050908060020160009054906101000a900473ffffffffffffffffffffffffffffffffffffffff16905083565b60045481565b60005b81518110156102e0576102cd61028e82610419565b60405160200161029e9190610b8c565b6040516020818303038152906040528383815181106102c0576102bf610bb2565b5b6020026020010151610579565b80806102d890610c10565b915050610279565b5050565b60025481565b600160205280600052604060002060009150905080600001549080600101805461031390610af9565b80601f016020809104026020016040519081016040528092919081815260200182805461033f90610af9565b801561038c5780601f106103615761010080835404028352916020019161038c565b820191906000526020600020905b81548152906001019060200180831161036f57829003601f168201915b5050505050908060020160009054906101000a900473ffffffffffffffffffffffffffffffffffffffff16905083565b60006020528060005260406000206000915054906101000a900460ff1681565b600080600090505b82518110156104125760018111156103ff5780915050610414565b808061040a90610c10565b9150506103e4565b505b919050565b606060008203610460576040518060400160405280600181526020017f30000000000000000000000000000000000000000000000000000000000000008152509050610574565b600082905060005b6000821461049257808061047b90610c10565b915050600a8261048b9190610c87565b9150610468565b60008167ffffffffffffffff8111156104ae576104ad6108af565b5b6040519080825280601f01601f1916602001820160405280156104e05781602001600182028036833780820191505090505b5090505b6000851461056d576001826104f99190610cb8565b9150600a856105089190610cec565b60306105149190610d1d565b60f81b81838151811061052a57610529610bb2565b5b60200101907effffffffffffffffffffffffffffffffffffffffffffffffffffffffffffff1916908160001a905350600a856105669190610c87565b94506104e4565b8093505050505b919050565b6002600081548092919061058c90610c10565b9190505550604051806060016040528060025481526020018381526020018273ffffffffffffffffffffffffffffffffffffffff168152506001600060025481526020019081526020016000206000820151816000015560208201518160010190805190602001906105ff92919061064e565b5060408201518160020160006101000a81548173ffffffffffffffffffffffffffffffffffffffff021916908373ffffffffffffffffffffffffffffffffffffffff1602179055509050505050565b82805461065a90610af9565b90600052602060002090601f01602090048101928261067c57600085556106c3565b82601f1061069557805160ff19168380011785556106c3565b828001600101855582156106c3579182015b828111156106c25782518255916020019190600101906106a7565b5b5090506106d091906106d4565b5090565b5b808211156106ed5760008160009055506001016106d5565b5090565b6000604051905090565b600080fd5b600080fd5b6000819050919050565b61071881610705565b811461072357600080fd5b50565b6000813590506107358161070f565b92915050565b600060208284031215610751576107506106fb565b5b600061075f84828501610726565b91505092915050565b61077181610705565b82525050565b600081519050919050565b600082825260208201905092915050565b60005b838110156107b1578082015181840152602081019050610796565b838111156107c0576000848401525b50505050565b6000601f19601f8301169050919050565b60006107e282610777565b6107ec8185610782565b93506107fc818560208601610793565b610805816107c6565b840191505092915050565b600073ffffffffffffffffffffffffffffffffffffffff82169050919050565b600061083b82610810565b9050919050565b61084b81610830565b82525050565b60006060820190506108666000830186610768565b818103602083015261087881856107d7565b90506108876040830184610842565b949350505050565b60006020820190506108a46000830184610768565b92915050565b600080fd5b7f4e487b7100000000000000000000000000000000000000000000000000000000600052604160045260246000fd5b6108e7826107c6565b810181811067ffffffffffffffff82111715610906576109056108af565b5b80604052505050565b60006109196106f1565b905061092582826108de565b919050565b600067ffffffffffffffff821115610945576109446108af565b5b602082029050602081019050919050565b600080fd5b61096481610830565b811461096f57600080fd5b50565b6000813590506109818161095b565b92915050565b600061099a6109958461092a565b61090f565b905080838252602082019050602084028301858111156109bd576109bc610956565b5b835b818110156109e657806109d28882610972565b8452602084019350506020810190506109bf565b5050509392505050565b600082601f830112610a0557610a046108aa565b5b8135610a15848260208601610987565b91505092915050565b600060208284031215610a3457610a336106fb565b5b600082013567ffffffffffffffff811115610a5257610a51610700565b5b610a5e848285016109f0565b91505092915050565b600060208284031215610a7d57610a7c6106fb565b5b6000610a8b84828501610972565b91505092915050565b60008115159050919050565b610aa981610a94565b82525050565b6000602082019050610ac46000830184610aa0565b92915050565b7f4e487b7100000000000000000000000000000000000000000000000000000000600052602260045260246000fd5b60006002820490506001821680610b1157607f821691505b602082108103610b2457610b23610aca565b5b50919050565b7f456d706c6f796565200000000000000000000000000000000000000000000000815250565b600081905092915050565b6000610b6682610777565b610b708185610b50565b9350610b80818560208601610793565b80840191505092915050565b6000610b9782610b2a565b600982019150610ba78284610b5b565b915081905092915050565b7f4e487b7100000000000000000000000000000000000000000000000000000000600052603260045260246000fd5b7f4e487b7100000000000000000000000000000000000000000000000000000000600052601160045260246000fd5b6000610c1b82610705565b91507fffffffffffffffffffffffffffffffffffffffffffffffffffffffffffffffff8203610c4d57610c4c610be1565b5b600182019050919050565b7f4e487b7100000000000000000000000000000000000000000000000000000000600052601260045260246000fd5b6000610c9282610705565b9150610c9d83610705565b925082610cad57610cac610c58565b5b828204905092915050565b6000610cc382610705565b9150610cce83610705565b925082821015610ce157610ce0610be1565b5b828203905092915050565b6000610cf782610705565b9150610d0283610705565b925082610d1257610d11610c58565b5b828206905092915050565b6000610d2882610705565b9150610d3383610705565b9250827fffffffffffffffffffffffffffffffffffffffffffffffffffffffffffffffff03821115610d6857610d67610be1565b5b82820190509291505056fea26469706673582212201595cfb6098e4856778c86e7ddd4f872c42016042950726e3543ae3df62b187c64736f6c634300080e0033",
  "immutableReferences": {},
  "source": "// SPDX-License-Identifier: MIT\npragma solidity >=0.4.22 <0.9.0;\nimport \"@openzeppelin/contracts/utils/Strings.sol\";\n\ncontract Refund {\n    // Model a Candidate\n    struct Employee {\n        uint id;\n        string name;\n        address public_address;\n    }\n\n    struct Employer {\n        uint id;\n        string name;\n        address public_address;\n    }\n    // struct contract_data{\n    //     uint id;\n    //     uint[2] minimum_points;\n    //     uint[2] maximum_points;\n    //     uint duration;\n    //     Employee[] public employees;\n    //     Employer public employer;\n    // }\n\n    // Store accounts that have voted\n    mapping(address => bool) public users;\n    // Store Candidates\n    // Fetch Candidate\n    mapping(uint => Employee) public employees;\n    // Store Candidates Count\n    uint public Employeecount;\n\n    mapping(uint => Employer) public employers;\n    // Store Candidates Count\n    uint public Employercount;\n\n\n    // voted event\n    event FoundLocationEvent (\n        uint indexed _candidateId\n    );\n\n    function  initialize_employers(address[] memory a) public pure returns (uint){\n        for (uint add=0 ; add < a.length; add++){\n            if(add>1){  return add; \n            }\n            // addEmployer(string.concat(\"Employer \" , Strings.toString(add)) , a[add]);\n            }\n        // addEmployee(\"Employee 1\" , a[1]);\n    }\n    function  initialize_employees(address[] memory a) public{\n        // addEmployer(\"Employer 1\" , a[0]);\n         for (uint add=0 ; add < a.length; add++){\n            addEmployee(string.concat(\"Employee \" , Strings.toString(add)) , a[add]);\n            }\n    }\n\n    function addEmployer (string memory _name , address user_address) private {\n        Employercount ++;\n        employers[Employercount] = Employer(Employercount, _name, user_address);\n    }\n    function addEmployee (string memory _name , address user_address) private {\n        Employeecount ++;\n        employees[Employeecount] = Employee(Employeecount, _name, user_address);\n    }\n\n    // function vote (uint _candidateId) public {\n    //     // require that they haven't voted before\n    //     require(!voters[msg.sender]);\n\n    //     // require a valid candidate\n    //     require(_candidateId > 0 && _candidateId <= candidatesCount);\n\n    //     // record that voter has voted\n    //     voters[msg.sender] = true;\n\n    //     // update candidate vote Count\n    //     candidates[_candidateId].voteCount ++;\n\n    //     // trigger voted event\n    //     votedEvent(_candidateId);\n    // }\n}",
  "sourcePath": "/home/hp/Downloads/react/truffle/contracts/Refund.sol",
  "compiler": {
    "name": "solc",
    "version": "0.8.14+commit.80d49f37.Emscripten.clang"
  },
  "schemaVersion": "3.4.8",
  "updatedAt": "2022-07-16T04:29:12.292Z",
  "networkType": "ethereum",
  "devdoc": {
    "kind": "dev",
    "methods": {},
    "version": 1
  },
  "userdoc": {
    "kind": "user",
    "methods": {},
    "version": 1
  }
}