{
  "contractName": "Refund",
  "abi": [
    {
      "anonymous": false,
      "inputs": [
        {
          "indexed": false,
          "internalType": "address",
          "name": "employeeaddress",
          "type": "address"
        }
      ],
      "name": "CompletedEvent",
      "type": "event"
    },
    {
      "anonymous": false,
      "inputs": [
        {
          "indexed": false,
          "internalType": "address",
          "name": "employeeaddress",
          "type": "address"
        }
      ],
      "name": "FailedEvent",
      "type": "event"
    },
    {
      "inputs": [],
      "name": "Contractcount",
      "outputs": [
        {
          "internalType": "uint256",
          "name": "",
          "type": "uint256"
        }
      ],
      "stateMutability": "view",
      "type": "function",
      "constant": true
    },
    {
      "inputs": [],
      "name": "Employeecount",
      "outputs": [
        {
          "internalType": "uint256",
          "name": "",
          "type": "uint256"
        }
      ],
      "stateMutability": "view",
      "type": "function",
      "constant": true
    },
    {
      "inputs": [],
      "name": "Employercount",
      "outputs": [
        {
          "internalType": "uint256",
          "name": "",
          "type": "uint256"
        }
      ],
      "stateMutability": "view",
      "type": "function",
      "constant": true
    },
    {
      "inputs": [
        {
          "internalType": "address",
          "name": "",
          "type": "address"
        }
      ],
      "name": "contracts",
      "outputs": [
        {
          "internalType": "uint256",
          "name": "id",
          "type": "uint256"
        },
        {
          "internalType": "uint256",
          "name": "minimum_point_long",
          "type": "uint256"
        },
        {
          "internalType": "uint256",
          "name": "minimum_point_lat",
          "type": "uint256"
        },
        {
          "internalType": "uint256",
          "name": "maximum_point_long",
          "type": "uint256"
        },
        {
          "internalType": "uint256",
          "name": "maximum_point_lat",
          "type": "uint256"
        },
        {
          "internalType": "uint256",
          "name": "starting_time",
          "type": "uint256"
        },
        {
          "internalType": "uint256",
          "name": "duration",
          "type": "uint256"
        },
        {
          "internalType": "uint256",
          "name": "gathered_location_count",
          "type": "uint256"
        },
        {
          "internalType": "bool",
          "name": "contract_truth",
          "type": "bool"
        },
        {
          "internalType": "bool",
          "name": "completed",
          "type": "bool"
        },
        {
          "components": [
            {
              "internalType": "uint256",
              "name": "id",
              "type": "uint256"
            },
            {
              "internalType": "string",
              "name": "name",
              "type": "string"
            },
            {
              "internalType": "address",
              "name": "public_address",
              "type": "address"
            }
          ],
          "internalType": "struct Refund.Employee",
          "name": "employees",
          "type": "tuple"
        },
        {
          "components": [
            {
              "internalType": "uint256",
              "name": "id",
              "type": "uint256"
            },
            {
              "internalType": "string",
              "name": "name",
              "type": "string"
            },
            {
              "internalType": "address",
              "name": "public_address",
              "type": "address"
            }
          ],
          "internalType": "struct Refund.Employer",
          "name": "employer",
          "type": "tuple"
        }
      ],
      "stateMutability": "view",
      "type": "function",
      "constant": true
    },
    {
      "inputs": [
        {
          "internalType": "uint256",
          "name": "",
          "type": "uint256"
        }
      ],
      "name": "employee_mapping",
      "outputs": [
        {
          "internalType": "address",
          "name": "",
          "type": "address"
        }
      ],
      "stateMutability": "view",
      "type": "function",
      "constant": true
    },
    {
      "inputs": [
        {
          "internalType": "address",
          "name": "",
          "type": "address"
        }
      ],
      "name": "employees",
      "outputs": [
        {
          "internalType": "uint256",
          "name": "id",
          "type": "uint256"
        },
        {
          "internalType": "string",
          "name": "name",
          "type": "string"
        },
        {
          "internalType": "address",
          "name": "public_address",
          "type": "address"
        }
      ],
      "stateMutability": "view",
      "type": "function",
      "constant": true
    },
    {
      "inputs": [
        {
          "internalType": "address",
          "name": "",
          "type": "address"
        }
      ],
      "name": "employers",
      "outputs": [
        {
          "internalType": "uint256",
          "name": "id",
          "type": "uint256"
        },
        {
          "internalType": "string",
          "name": "name",
          "type": "string"
        },
        {
          "internalType": "address",
          "name": "public_address",
          "type": "address"
        }
      ],
      "stateMutability": "view",
      "type": "function",
      "constant": true
    },
    {
      "inputs": [
        {
          "internalType": "address[]",
          "name": "a",
          "type": "address[]"
        }
      ],
      "name": "initialize_employers",
      "outputs": [],
      "stateMutability": "nonpayable",
      "type": "function"
    },
    {
      "inputs": [
        {
          "internalType": "address[]",
          "name": "a",
          "type": "address[]"
        }
      ],
      "name": "initialize_employees",
      "outputs": [],
      "stateMutability": "nonpayable",
      "type": "function"
    },
    {
      "inputs": [
        {
          "internalType": "uint256[2]",
          "name": "minimum_points",
          "type": "uint256[2]"
        },
        {
          "internalType": "uint256[2]",
          "name": "maximum_points",
          "type": "uint256[2]"
        },
        {
          "internalType": "uint256",
          "name": "duration",
          "type": "uint256"
        },
        {
          "internalType": "string",
          "name": "employee_name",
          "type": "string"
        },
        {
          "internalType": "address",
          "name": "employee_address",
          "type": "address"
        },
        {
          "internalType": "address",
          "name": "employer_address",
          "type": "address"
        }
      ],
      "name": "Create_contract_data",
      "outputs": [],
      "stateMutability": "nonpayable",
      "type": "function"
    },
    {
      "inputs": [
        {
          "internalType": "uint256",
          "name": "longitude",
          "type": "uint256"
        },
        {
          "internalType": "uint256",
          "name": "latitude",
          "type": "uint256"
        }
      ],
      "name": "get_location",
      "outputs": [
        {
          "internalType": "bool",
          "name": "",
          "type": "bool"
        }
      ],
      "stateMutability": "nonpayable",
      "type": "function"
    }
  ],
  "bytecode": "0x608060405234801561001057600080fd5b5061219e806100206000396000f3fe608060405234801561001057600080fd5b50600436106100a95760003560e01c80634643ea7d116100715780634643ea7d146101685780635cf1f7b61461018657806369dc9ff3146101a2578063b226c1d9146101dd578063c4ac567e146101f9578063d067894714610229576100a9565b806301c1812a146100ae57806307e7c336146100de5780630be435bd146100fc57806326b3726d1461012e5780633795fcb91461014a575b600080fd5b6100c860048036038101906100c3919061164f565b61025b565b6040516100d591906116bd565b60405180910390f35b6100e661028e565b6040516100f391906116e7565b60405180910390f35b6101166004803603810190610111919061172e565b610294565b604051610125939291906117f4565b60405180910390f35b6101486004803603810190610143919061197a565b610366565b005b6101526103d4565b60405161015f91906116e7565b60405180910390f35b6101706103da565b60405161017d91906116e7565b60405180910390f35b6101a0600480360381019061019b9190611b29565b6103e0565b005b6101bc60048036038101906101b7919061172e565b6109a1565b6040516101d49c9b9a99989796959493929190611cf6565b60405180910390f35b6101f760048036038101906101f2919061197a565b610c13565b005b610213600480360381019061020e9190611dbe565b610c81565b6040516102209190611dfe565b60405180910390f35b610243600480360381019061023e919061172e565b611048565b604051610252939291906117f4565b60405180910390f35b60036020528060005260406000206000915054906101000a900473ffffffffffffffffffffffffffffffffffffffff1681565b60065481565b60056020528060005260406000206000915090508060000154908060010180546102bd90611e48565b80601f01602080910402602001604051908101604052809291908181526020018280546102e990611e48565b80156103365780601f1061030b57610100808354040283529160200191610336565b820191906000526020600020905b81548152906001019060200180831161031957829003601f168201915b5050505050908060020160009054906101000a900473ffffffffffffffffffffffffffffffffffffffff16905083565b60005b81518110156103d0576103bd61037e8261111a565b60405160200161038e9190611edb565b6040516020818303038152906040528383815181106103b0576103af611f01565b5b602002602001015161127a565b80806103c890611f5f565b915050610369565b5050565b60015481565b60045481565b6000600260008473ffffffffffffffffffffffffffffffffffffffff1673ffffffffffffffffffffffffffffffffffffffff168152602001908152602001600020600001541161048957610434838361127a565b8160036000600454815260200190815260200160002060006101000a81548173ffffffffffffffffffffffffffffffffffffffff021916908373ffffffffffffffffffffffffffffffffffffffff1602179055505b6001600081548092919061049c90611f5f565b91905055506040518061018001604052806001548152602001876000600281106104c9576104c8611f01565b5b60200201518152602001876001600281106104e7576104e6611f01565b5b602002015181526020018660006002811061050557610504611f01565b5b602002015181526020018660016002811061052357610522611f01565b5b6020020151815260200142815260200185815260200160008152602001600115158152602001600015158152602001600260008573ffffffffffffffffffffffffffffffffffffffff1673ffffffffffffffffffffffffffffffffffffffff168152602001908152602001600020604051806060016040529081600082015481526020016001820180546105b690611e48565b80601f01602080910402602001604051908101604052809291908181526020018280546105e290611e48565b801561062f5780601f106106045761010080835404028352916020019161062f565b820191906000526020600020905b81548152906001019060200180831161061257829003601f168201915b505050505081526020016002820160009054906101000a900473ffffffffffffffffffffffffffffffffffffffff1673ffffffffffffffffffffffffffffffffffffffff1673ffffffffffffffffffffffffffffffffffffffff16815250508152602001600560008473ffffffffffffffffffffffffffffffffffffffff1673ffffffffffffffffffffffffffffffffffffffff168152602001908152602001600020604051806060016040529081600082015481526020016001820180546106f790611e48565b80601f016020809104026020016040519081016040528092919081815260200182805461072390611e48565b80156107705780601f1061074557610100808354040283529160200191610770565b820191906000526020600020905b81548152906001019060200180831161075357829003601f168201915b505050505081526020016002820160009054906101000a900473ffffffffffffffffffffffffffffffffffffffff1673ffffffffffffffffffffffffffffffffffffffff1673ffffffffffffffffffffffffffffffffffffffff16815250508152506000808473ffffffffffffffffffffffffffffffffffffffff1673ffffffffffffffffffffffffffffffffffffffff168152602001908152602001600020600082015181600001556020820151816001015560408201518160020155606082015181600301556080820151816004015560a0820151816005015560c0820151816006015560e082015181600701556101008201518160080160006101000a81548160ff0219169083151502179055506101208201518160080160016101000a81548160ff021916908315150217905550610140820151816009016000820151816000015560208201518160010190805190602001906108d2929190611562565b5060408201518160020160006101000a81548173ffffffffffffffffffffffffffffffffffffffff021916908373ffffffffffffffffffffffffffffffffffffffff160217905550505061016082015181600c0160008201518160000155602082015181600101908051906020019061094c929190611562565b5060408201518160020160006101000a81548173ffffffffffffffffffffffffffffffffffffffff021916908373ffffffffffffffffffffffffffffffffffffffff1602179055505050905050505050505050565b60006020528060005260406000206000915090508060000154908060010154908060020154908060030154908060040154908060050154908060060154908060070154908060080160009054906101000a900460ff16908060080160019054906101000a900460ff16908060090160405180606001604052908160008201548152602001600182018054610a3490611e48565b80601f0160208091040260200160405190810160405280929190818152602001828054610a6090611e48565b8015610aad5780601f10610a8257610100808354040283529160200191610aad565b820191906000526020600020905b815481529060010190602001808311610a9057829003601f168201915b505050505081526020016002820160009054906101000a900473ffffffffffffffffffffffffffffffffffffffff1673ffffffffffffffffffffffffffffffffffffffff1673ffffffffffffffffffffffffffffffffffffffff16815250509080600c0160405180606001604052908160008201548152602001600182018054610b3690611e48565b80601f0160208091040260200160405190810160405280929190818152602001828054610b6290611e48565b8015610baf5780601f10610b8457610100808354040283529160200191610baf565b820191906000526020600020905b815481529060010190602001808311610b9257829003601f168201915b505050505081526020016002820160009054906101000a900473ffffffffffffffffffffffffffffffffffffffff1673ffffffffffffffffffffffffffffffffffffffff1673ffffffffffffffffffffffffffffffffffffffff168152505090508c565b60005b8151811015610c7d57610c6a610c2b8261111a565b604051602001610c3b9190611fcd565b604051602081830303815290604052838381518110610c5d57610c5c611f01565b5b6020026020010151611379565b8080610c7590611f5f565b915050610c16565b5050565b6000806000803373ffffffffffffffffffffffffffffffffffffffff1673ffffffffffffffffffffffffffffffffffffffff1681526020019081526020016000206040518061018001604052908160008201548152602001600182015481526020016002820154815260200160038201548152602001600482015481526020016005820154815260200160068201548152602001600782015481526020016008820160009054906101000a900460ff161515151581526020016008820160019054906101000a900460ff161515151581526020016009820160405180606001604052908160008201548152602001600182018054610d7e90611e48565b80601f0160208091040260200160405190810160405280929190818152602001828054610daa90611e48565b8015610df75780601f10610dcc57610100808354040283529160200191610df7565b820191906000526020600020905b815481529060010190602001808311610dda57829003601f168201915b505050505081526020016002820160009054906101000a900473ffffffffffffffffffffffffffffffffffffffff1673ffffffffffffffffffffffffffffffffffffffff1673ffffffffffffffffffffffffffffffffffffffff16815250508152602001600c820160405180606001604052908160008201548152602001600182018054610e8490611e48565b80601f0160208091040260200160405190810160405280929190818152602001828054610eb090611e48565b8015610efd5780601f10610ed257610100808354040283529160200191610efd565b820191906000526020600020905b815481529060010190602001808311610ee057829003601f168201915b505050505081526020016002820160009054906101000a900473ffffffffffffffffffffffffffffffffffffffff1673ffffffffffffffffffffffffffffffffffffffff1673ffffffffffffffffffffffffffffffffffffffff168152505081525050905060008160000151111561103c5760011515816101200151151514611032576000603c8260a0015142610f949190611ff3565b610f9e9190612056565b90508160c0015181101561101a5760018260e00151610fbd9190612087565b8260e001818152505084826020015111158015610fde575084826060015110155b8015610fee575083826040015111155b8015610ffe575083826080015110155b611015576000826101000190151590811515815250505b611030565b8160c00151811061102f5761102e82611478565b5b5b505b6001915050611042565b60009150505b92915050565b600260205280600052604060002060009150905080600001549080600101805461107190611e48565b80601f016020809104026020016040519081016040528092919081815260200182805461109d90611e48565b80156110ea5780601f106110bf576101008083540402835291602001916110ea565b820191906000526020600020905b8154815290600101906020018083116110cd57829003601f168201915b5050505050908060020160009054906101000a900473ffffffffffffffffffffffffffffffffffffffff16905083565b606060008203611161576040518060400160405280600181526020017f30000000000000000000000000000000000000000000000000000000000000008152509050611275565b600082905060005b6000821461119357808061117c90611f5f565b915050600a8261118c9190612056565b9150611169565b60008167ffffffffffffffff8111156111af576111ae611837565b5b6040519080825280601f01601f1916602001820160405280156111e15781602001600182028036833780820191505090505b5090505b6000851461126e576001826111fa9190611ff3565b9150600a8561120991906120dd565b60306112159190612087565b60f81b81838151811061122b5761122a611f01565b5b60200101907effffffffffffffffffffffffffffffffffffffffffffffffffffffffffffff1916908160001a905350600a856112679190612056565b94506111e5565b8093505050505b919050565b6004600081548092919061128d90611f5f565b9190505550604051806060016040528060045481526020018381526020018273ffffffffffffffffffffffffffffffffffffffff16815250600260008373ffffffffffffffffffffffffffffffffffffffff1673ffffffffffffffffffffffffffffffffffffffff16815260200190815260200160002060008201518160000155602082015181600101908051906020019061132a929190611562565b5060408201518160020160006101000a81548173ffffffffffffffffffffffffffffffffffffffff021916908373ffffffffffffffffffffffffffffffffffffffff1602179055509050505050565b6006600081548092919061138c90611f5f565b9190505550604051806060016040528060065481526020018381526020018273ffffffffffffffffffffffffffffffffffffffff16815250600560008373ffffffffffffffffffffffffffffffffffffffff1673ffffffffffffffffffffffffffffffffffffffff168152602001908152602001600020600082015181600001556020820151816001019080519060200190611429929190611562565b5060408201518160020160006101000a81548173ffffffffffffffffffffffffffffffffffffffff021916908373ffffffffffffffffffffffffffffffffffffffff1602179055509050505050565b6000600460038360c0015161148d919061210e565b6114979190612056565b905081610100015180156114af57508160e001518111155b1561150b576001826101200190151590811515815250507f871fa287ac4622a25ff1f1453a54595f1ff56e6cdb0a9db62276452c01b12da4826101400151604001516040516114fe91906116bd565b60405180910390a161155e565b6000826101200190151590811515815250507f786a31ae102b4fb7a6a89d00c101a8acc314aab6cb828639132dd0c7815e84778261014001516040015160405161155591906116bd565b60405180910390a15b5050565b82805461156e90611e48565b90600052602060002090601f01602090048101928261159057600085556115d7565b82601f106115a957805160ff19168380011785556115d7565b828001600101855582156115d7579182015b828111156115d65782518255916020019190600101906115bb565b5b5090506115e491906115e8565b5090565b5b808211156116015760008160009055506001016115e9565b5090565b6000604051905090565b600080fd5b600080fd5b6000819050919050565b61162c81611619565b811461163757600080fd5b50565b60008135905061164981611623565b92915050565b6000602082840312156116655761166461160f565b5b60006116738482850161163a565b91505092915050565b600073ffffffffffffffffffffffffffffffffffffffff82169050919050565b60006116a78261167c565b9050919050565b6116b78161169c565b82525050565b60006020820190506116d260008301846116ae565b92915050565b6116e181611619565b82525050565b60006020820190506116fc60008301846116d8565b92915050565b61170b8161169c565b811461171657600080fd5b50565b60008135905061172881611702565b92915050565b6000602082840312156117445761174361160f565b5b600061175284828501611719565b91505092915050565b600081519050919050565b600082825260208201905092915050565b60005b8381101561179557808201518184015260208101905061177a565b838111156117a4576000848401525b50505050565b6000601f19601f8301169050919050565b60006117c68261175b565b6117d08185611766565b93506117e0818560208601611777565b6117e9816117aa565b840191505092915050565b600060608201905061180960008301866116d8565b818103602083015261181b81856117bb565b905061182a60408301846116ae565b949350505050565b600080fd5b7f4e487b7100000000000000000000000000000000000000000000000000000000600052604160045260246000fd5b61186f826117aa565b810181811067ffffffffffffffff8211171561188e5761188d611837565b5b80604052505050565b60006118a1611605565b90506118ad8282611866565b919050565b600067ffffffffffffffff8211156118cd576118cc611837565b5b602082029050602081019050919050565b600080fd5b60006118f66118f1846118b2565b611897565b90508083825260208201905060208402830185811115611919576119186118de565b5b835b81811015611942578061192e8882611719565b84526020840193505060208101905061191b565b5050509392505050565b600082601f83011261196157611960611832565b5b81356119718482602086016118e3565b91505092915050565b6000602082840312156119905761198f61160f565b5b600082013567ffffffffffffffff8111156119ae576119ad611614565b5b6119ba8482850161194c565b91505092915050565b600067ffffffffffffffff8211156119de576119dd611837565b5b602082029050919050565b60006119fc6119f7846119c3565b611897565b90508060208402830185811115611a1657611a156118de565b5b835b81811015611a3f5780611a2b888261163a565b845260208401935050602081019050611a18565b5050509392505050565b600082601f830112611a5e57611a5d611832565b5b6002611a6b8482856119e9565b91505092915050565b600080fd5b600067ffffffffffffffff821115611a9457611a93611837565b5b611a9d826117aa565b9050602081019050919050565b82818337600083830152505050565b6000611acc611ac784611a79565b611897565b905082815260208101848484011115611ae857611ae7611a74565b5b611af3848285611aaa565b509392505050565b600082601f830112611b1057611b0f611832565b5b8135611b20848260208601611ab9565b91505092915050565b6000806000806000806101008789031215611b4757611b4661160f565b5b6000611b5589828a01611a49565b9650506040611b6689828a01611a49565b9550506080611b7789828a0161163a565b94505060a087013567ffffffffffffffff811115611b9857611b97611614565b5b611ba489828a01611afb565b93505060c0611bb589828a01611719565b92505060e0611bc689828a01611719565b9150509295509295509295565b60008115159050919050565b611be881611bd3565b82525050565b611bf781611619565b82525050565b600082825260208201905092915050565b6000611c198261175b565b611c238185611bfd565b9350611c33818560208601611777565b611c3c816117aa565b840191505092915050565b611c508161169c565b82525050565b6000606083016000830151611c6e6000860182611bee565b5060208301518482036020860152611c868282611c0e565b9150506040830151611c9b6040860182611c47565b508091505092915050565b6000606083016000830151611cbe6000860182611bee565b5060208301518482036020860152611cd68282611c0e565b9150506040830151611ceb6040860182611c47565b508091505092915050565b600061018082019050611d0c600083018f6116d8565b611d19602083018e6116d8565b611d26604083018d6116d8565b611d33606083018c6116d8565b611d40608083018b6116d8565b611d4d60a083018a6116d8565b611d5a60c08301896116d8565b611d6760e08301886116d8565b611d75610100830187611bdf565b611d83610120830186611bdf565b818103610140830152611d968185611c56565b9050818103610160830152611dab8184611ca6565b90509d9c50505050505050505050505050565b60008060408385031215611dd557611dd461160f565b5b6000611de38582860161163a565b9250506020611df48582860161163a565b9150509250929050565b6000602082019050611e136000830184611bdf565b92915050565b7f4e487b7100000000000000000000000000000000000000000000000000000000600052602260045260246000fd5b60006002820490506001821680611e6057607f821691505b602082108103611e7357611e72611e19565b5b50919050565b7f456d706c6f796565200000000000000000000000000000000000000000000000815250565b600081905092915050565b6000611eb58261175b565b611ebf8185611e9f565b9350611ecf818560208601611777565b80840191505092915050565b6000611ee682611e79565b600982019150611ef68284611eaa565b915081905092915050565b7f4e487b7100000000000000000000000000000000000000000000000000000000600052603260045260246000fd5b7f4e487b7100000000000000000000000000000000000000000000000000000000600052601160045260246000fd5b6000611f6a82611619565b91507fffffffffffffffffffffffffffffffffffffffffffffffffffffffffffffffff8203611f9c57611f9b611f30565b5b600182019050919050565b7f456d706c6f796572200000000000000000000000000000000000000000000000815250565b6000611fd882611fa7565b600982019150611fe88284611eaa565b915081905092915050565b6000611ffe82611619565b915061200983611619565b92508282101561201c5761201b611f30565b5b828203905092915050565b7f4e487b7100000000000000000000000000000000000000000000000000000000600052601260045260246000fd5b600061206182611619565b915061206c83611619565b92508261207c5761207b612027565b5b828204905092915050565b600061209282611619565b915061209d83611619565b9250827fffffffffffffffffffffffffffffffffffffffffffffffffffffffffffffffff038211156120d2576120d1611f30565b5b828201905092915050565b60006120e882611619565b91506120f383611619565b92508261210357612102612027565b5b828206905092915050565b600061211982611619565b915061212483611619565b9250817fffffffffffffffffffffffffffffffffffffffffffffffffffffffffffffffff048311821515161561215d5761215c611f30565b5b82820290509291505056fea264697066735822122040c8b35ed9ee353e8e23e658ce48ca59886c88cab03f447ab311180ede9ab33264736f6c634300080e0033",
  "immutableReferences": {},
  "source": "// SPDX-License-Identifier: MIT\npragma solidity >=0.4.22 <0.9.0;\nimport \"@openzeppelin/contracts/utils/Strings.sol\";\n\ncontract Refund {\n    // Model a Candidate\n\n    event CompletedEvent (\n        address employeeaddress\n    );\n\n    event FailedEvent (\n        address employeeaddress\n    );\n    // employee data\n    struct Employee {\n        uint id;\n        string name;\n        address public_address;\n    }\n\n    //employer data\n    struct Employer {\n        uint id;\n        string name;\n        address public_address;\n    }\n\n    //contract data with boundary points , durations , completion checkers\n    struct contract_data{\n        uint id;\n        uint minimum_point_long;\n        uint minimum_point_lat;\n        uint maximum_point_long;\n        uint maximum_point_lat;\n        uint starting_time;\n        uint duration;\n        uint gathered_location_count;\n        bool contract_truth;\n        bool completed;\n        Employee employees;\n        Employer employer;\n    }\n    \n    // contracts that have been recorded \n    mapping(address => contract_data) public contracts;\n    \n    uint public Contractcount;\n\n    // Employees that have been recorded\n    mapping(address => Employee) public employees;\n\n    mapping (uint => address) public employee_mapping;\n \n    uint public Employeecount;\n\n    // employer that have been recorded\n    mapping(address => Employer) public employers;\n    uint public Employercount;\n\n    function  initialize_employers(address[] memory a) public {\n        for (uint add=0 ; add < a.length; add++){\n            addEmployer(string.concat(\"Employer \" , Strings.toString(add)) , a[add]);\n            }\n        // addEmployee(\"Employee 1\" , a[1]);\n    }\n    function  initialize_employees(address[] memory a) public{\n        // addEmployer(\"Employer 1\" , a[0]);\n         for (uint add=0 ; add < a.length; add++){\n            addEmployee(string.concat(\"Employee \" , Strings.toString(add)) , a[add]);\n            }\n    }\n\n    function addEmployer (string memory _name , address user_address) private {\n        Employercount ++;\n        employers[user_address] = Employer(Employercount, _name, user_address);\n    }\n    function addEmployee (string memory _name , address user_address) private {\n        Employeecount ++;\n        employees[user_address] = Employee(Employeecount, _name, user_address);\n    }\n\n    function Create_contract_data( uint[2] memory minimum_points, uint[2] memory maximum_points, uint duration, string memory employee_name , address employee_address, address employer_address) public{\n        if (! (employees[employee_address].id > 0)){\n            addEmployee(employee_name, employee_address);\n            employee_mapping[Employeecount] = employee_address;\n         }\n        Contractcount++;\n        contracts[employee_address] = contract_data(Contractcount, minimum_points[0] , minimum_points[1] ,maximum_points[0] , maximum_points [1], block.timestamp ,duration , 0 ,true , false ,employees[employee_address],employers[employer_address]);\n    }\n\n    function get_location( uint  longitude, uint  latitude) public  returns (bool){\n        \n        contract_data memory found_contract = contracts[msg.sender];\n        if (found_contract.id > 0){\n        if ( found_contract.completed != true){\n            uint duration = (block.timestamp - found_contract.starting_time) / 60 ;\n            if (duration < found_contract.duration){ \n                found_contract.gathered_location_count = found_contract.gathered_location_count + 1;\n                if (! (found_contract.minimum_point_long <= longitude && found_contract.maximum_point_long >= longitude && found_contract.minimum_point_lat <= latitude && found_contract.maximum_point_lat >= latitude) ){\n                    found_contract.contract_truth = false;\n                }\n            }else if ( duration >=found_contract.duration){\n                check_completion(found_contract);\n               \n            }\n        }\n            return true;\n            }else{\n                return false;\n            }\n    }\n\n    function check_completion(contract_data memory found_contract) private{\n        uint minimum_check = found_contract.duration * 3 / 4 ;\n        if (found_contract.contract_truth && minimum_check <= found_contract.gathered_location_count){\n                    found_contract.completed = true;\n                    emit CompletedEvent(found_contract.employees.public_address);\n                }\n                else{\n                    found_contract.completed = false;\n                    emit FailedEvent(found_contract.employees.public_address);\n                }\n    }\n\n}",
  "sourcePath": "/home/hp/Downloads/react/truffle/contracts/Refund.sol",
  "compiler": {
    "name": "solc",
    "version": "0.8.14+commit.80d49f37.Emscripten.clang"
  },
  "schemaVersion": "3.4.8",
  "updatedAt": "2022-07-18T19:46:46.902Z",
  "networkType": "ethereum",
  "devdoc": {
    "kind": "dev",
    "methods": {},
    "version": 1
  },
  "userdoc": {
    "kind": "user",
    "methods": {},
    "version": 1
  }
}